:020000022000DC
:1070000000000420B5720200DD720200DF7202008F
:10701000E1720200E3720200E5720200000000006B
:10702000000000000000000000000000E772020005
:10703000E972020000000000EB720200ED72020033
:1070400019DA0200EF7202007DE002009DEB0200FF
:10705000EF720200EF72020079DD0200EF720200AF
:10706000EF720200EF720200EF720200EF72020094
:10707000EF720200EF720200EF720200EF72020084
:10708000EF72020029930200EF720200EF72020019
:10709000EF720200EF720200E59D0300EF72020042
:1070A000EF720200EF720200EF720200EF72020054
:1070B000EF720200EF72020000000000000000000A
:1070C000EF720200EF720200EF720200EF72020034
:1070D000EF720200EF720200EF720200EF72020024
:1070E000EF720200EF720200EF7202000000000077
:1070F00000000000EF72020000000000EF720200CA
:10710000000000000000000000000000000000007F
:10711000000000000000000000000000000000006F
:10712000000000000000000000000000000000005F
:10713000000000000000000000000000000000004F
:10714000000000000000000000000000000000003F
:10715000000000000000000000000000000000002F
:10716000000000000000000000000000000000001F
:10717000000000000000000000000000000000000F
:1071800000000000000000000000000000000000FF
:1071900000000000000000000000000000000000EF
:1071A00000000000000000000000000000000000DF
:1071B00000000000000000000000000000000000CF
:1071C00000000000000000000000000000000000BF
:1071D00000000000000000000000000000000000AF
:1071E000000000000000000000000000000000009F
:1071F000000000000000000000000000000000008F
:1072000010B5054C237833B9044B13B10448AFF3E0
:1072100000800123237010BDC82D00200000000055
:10722000F8DA030008B5034B1BB103490348AFF379
:10723000008008BD00000000CC2D0020F8DA03001B
:10724000154B002B08BF134B9D46A3F5803A002138
:107250008B460F461348144A121A13F07FF80F4B4F
:10726000002B00D098470E4B002B00D098470020F1
:10727000002104000D000D48002802D00C48AFF397
:10728000008013F02BF8200029000AF0A1FA13F077
:1072900011F800BF000008000000042000000000FA
:1072A00000000000C82D0020244000200000000045
:1072B000000000000649074A074B9B1A03DD043B08
:1072C000C858D050FBDC05F01DFDFFF7B9FF0000EA
:1072D00078DC0300D02C0020C82D0020FEE7FEE75C
:1072E000FEE7FEE7FEE7FEE7FEE7FEE7FEE7FEE776
:1072F00080B5A0B002AFF860B9607A603B60B86852
:1073000005F0FCFA7B68FB643B683B6500237B650A
:10731000002387F858300023FB65D7F880303B66A0
:1073200000237B6707F134017B6F0822B86805F002
:10733000A9FB08237B67FB6B3B643B8FA7F84430BA
:107340007B8FA7F84630002387F8493097F8343010
:1073500003F00303DBB2012B29D17B6BC3F395232D
:10736000BB6697F83430C3F3C203DBB287F848300A
:10737000BB8EC3F38313DBB27B667B6E9A0007F18F
:107380001C017B6FB86805F07DFB7B6E9B007A6FFC
:1073900013447B6707F1400207F11C0107F14C031E
:1073A000009313467A6EB86E00F0E0FE32E097F874
:1073B000343003F00303DBB2022B2BD1FB8EC3F37B
:1073C00089139BB23B6797F83430C3F3C203DBB237
:1073D00087F848303B6F082B28BF0823FB6607F16E
:1073E00014017B6FFA6EB86805F04CFB7A6FFB6E88
:1073F00013447B673A6FFB6ED31A3B6707F14C036C
:1074000007F1400207F11400F96E00F051FF3B6FE5
:10741000002BDFD1B86805F081FA00BF7837BD4690
:1074200080BD000080B582B000AF78607B681B78BB
:107430001A460D4B9B5C002B05D07B680433184625
:1074400008F026FE0BE07B681B781A46064B9B5C17
:10745000002B04D17B680C33184607F09DFF00BF5A
:107460000837BD4680BD00BF0040002080B586B013
:1074700000AFF860B9601346FB7100237B61FB68C5
:107480001B781A46104B9B5C002B08D0FB6804331A
:10749000FA79B968184608F051FE78610EE0FB6889
:1074A0001B781A46084B9B5C002B07D1FB680C33FA
:1074B000FA79B968184607F0E7FF78617B691846E2
:1074C0001837BD4680BD00BF0040002080B483B0A7
:1074D00000AF78603960044B01221A7000BF0C378E
:1074E000BD465DF8047B7047242E0020B0B58CB0FB
:1074F00000AF0346FB711A4B07F108041D460FCD80
:107500000FC495E80F0084E80F000623BB604FF01E
:10751000FF33FB604FF0FF333B614FF0FF337B6184
:107520004FF0EB733B62FB79002B01D00D4A00E07A
:10753000002207F1080319460B4806F09DF8F8628F
:10754000FB6ABB62BB6A002B02D0B86A00F028FF5E
:10755000064AFB79137000BF3037BD46B0BD00BF8F
:10756000CCAE0300CD740200D02C0020252E0020CC
:1075700080B588B000AFF860B9607A607B68FB774F
:10758000114B00221A70FB7F1A46B9680F48FFF7AB
:107590006DFFB861BB697B617B69002B02D07869A4
:1075A00000F0FEFE00BF0A4B1B78002B07D0064BF5
:1075B0001B78DBB283F00103DBB2002BF3D100BFF9
:1075C0002037BD4680BD00BF242E0020D02C0020D7
:1075D000252E002080B584B002AF78603960064B5C
:1075E00000934023054A39687868FFF781FE00BFA1
:1075F0000837BD4680BD00BF71750200E42D002034
:1076000080B483B000AF786000BF0C37BD465DF832
:10761000047B704780B582B000AF78600448FFF704
:1076200001FF0020FFF762FF00BF0837BD4680BDA5
:10763000D02C002080B582B000AF786039607B68C4
:107640001B681B6839687868984700BF0837BD46D3
:1076500080BD80B582B000AF78607B681B685B68D6
:107660007868984700BF0837BD4680BD80B582B0B6
:1076700000AF78607B681B689B687868984700BF9C
:107680000837BD4680BD80B483B000AF78607B68AA
:10769000DB6801225A7100BF0C37BD465DF8047BE0
:1076A000704780B483B000AF78607B68DB685B793B
:1076B00018460C37BD465DF8047B704780B400AFB8
:1076C000044A054BD31ADB081846BD465DF8047B17
:1076D000704700BF60DC030090DB030080B586B01C
:1076E00000AF78600B46FB70FB78002B1FD0FFF7D4
:1076F000E5FF386100237B6113E07B699B000E4A44
:107700001344FB60FB681B881A467B681B689A421F
:1077100004D17B687A691A60002309E07B69013330
:107720007B617A693B699A42E7D3052300E0002335
:1077300018461837BD4680BDC42D002080B584B0E2
:1077400000AF78600B46FB70FA783B1D1146184677
:10775000FFF7C4FF0346002B07D17B68DB00054A17
:107760001344FB60FB681B6800E0002318461037D9
:10777000BD4680BD90DB030080B485B000AF78606B
:107780000B46FB707B68DB00144A1344BB60FB783C
:10779000013B032B18D801A252F823F0AD77020069
:1077A000B3770200B9770200C17702000223FB73AE
:1077B0000DE00423FB730AE0BB681B79FB7306E052
:1077C000BB685B79FB7302E00023FB7300BFFB7BAC
:1077D00018461437BD465DF8047B704790DB030004
:1077E00080B485B000AF786039600023FB737B689C
:1077F0001B7803F00403DBB2002B23D07B681B78DB
:10780000C3F30103DBB2012B02D0022B0CD017E033
:107810003B681B687A681288C2F38312D2B21344A1
:107820009A1C3B681A600BE03B681B687A685288B8
:10783000C2F3891292B213449A1C3B681A6000BFCB
:107840000123FB73FB7B18461437BD465DF8047BB0
:107850007047000080B58AB000AF0023FB84384831
:1078600003F08FFE374803F08CFE374B5B683B61BB
:10787000354B9B68BB613A69BB69134002339B007F
:10788000314A134404333B6207F110031946386A46
:10789000FFF7A6FF0346002B09D03A69BB691340E6
:1078A00002339B00284A134404333B62ECE700BFD9
:1078B0000023FB6111E03B695A1C3A61BA6913402D
:1078C000FA699200391D0A441F4902339B000B4498
:1078D0005B681360FB690133FB61FB69012BEAD92B
:1078E0003B79C3F30103DBB2012B0DD0022B16D180
:1078F0007B89FB84FB88C3F389139BB203339A080B
:107900003B6913443B610BE07B89FB84BB88C3F379
:107910008313DBB21A463B6913443B6100E000BFAE
:10792000084803F03BFE78617B69002B02D03B697D
:10793000054A5360FB8C18462837BD4680BD00BF02
:10794000103300200C330020F82E002080B584B0C6
:1079500000AF0021074803F040FDF860FB68BB6002
:10796000BB6883F310037B607B6818461037BD4605
:1079700080BD00BF1433002080B588B000AFF86030
:10798000B9607A603B60FB681B0CBB61FFF7DEFFF0
:10799000F861FB6919043B685A1CBB6A1340BA6959
:1079A0000A431B4902339B000B445A603A68BB6A86
:1079B000134002339B00164A134404337B61FB6877
:1079C00003F00703D9B27A69137861F3C503137022
:1079D0007B6803F00F03D9B27A69138861F38913C6
:1079E0001380BB68C3F315017A69136861F39F23A1
:1079F00013607A691378012161F3010313707A69C6
:107A000013786FF38203137000BF2037BD4680BD2B
:107A1000F82E002080B58CB000AFF860B960134636
:107A2000FB71FB680233BB62012387F82730002318
:107A3000FB7607F11B03184601F0DEF8384B1A6895
:107A4000BB681A60364B9A68354B5968344B1B68D3
:107A5000CB1A13440133FB6214E00121314803F0D7
:107A600051FDFFF7F7FEF861F9692E4803F04AFD72
:107A70002B4B9A682A4B5968294B1B68CB1A134425
:107A80000133FB62BA6AFB6A9A42E6D897F827305C
:107A9000002B3BD000237B61FB79002B11D03B7D79
:107AA000012262F301033B753B7D43F004033B7508
:107AB000FB6803F00F03DAB2BB8A62F38913BB825F
:107AC00010E03B7D022262F301033B753B7D43F0F6
:107AD00004033B75FB68C3F309039AB2FB8A62F3A4
:107AE0008F13FB820E4B1A680D4B9B6813400233B9
:107AF0009B000B4A134404333B627A693B6A1A6069
:107B0000074B1A68BB6A1344054A1360FB7E18468C
:107B100001F07DF897F8273018463037BD4680BD14
:107B2000F82E00201433002080B58AB002AFF86030
:107B3000B9607A603B60204B9B687B6107F1100362
:107B4000012219463868FFF765FF0346002B24D051
:107B50003B690233FB610023BB6111E0BB699B0001
:107B60007A681A44FB69591CF96179690B401268FB
:107B7000114902339B000B445A60BB690133BB615E
:107B8000BA693B689A42E9D33A697B690093134624
:107B90003A68B968F868FFF7EFFE074B93F82034AE
:107BA000002B05D000BF00F06BF80346002BFAD184
:107BB00000BF2037BD4680BDF82E002080B582B0C2
:107BC00000AF786039600023002239687868FFF7D9
:107BD000ABFF00BF0837BD4680BD80B586B000AFA3
:107BE000F860B9607A607B687B6107F11402012359
:107BF000B968F868FFF798FF00BF1837BD4680BD29
:107C000080B586B000AFF860B9607A603B607B6891
:107C10003B613B687B6107F110020223B968F86899
:107C2000FFF782FF00BF1837BD4680BD80B588B022
:107C300000AFF860B9607A603B607B687B613B684D
:107C4000BB61BB6AFB6107F114020323B968F868E2
:107C5000FFF76AFF00BF2037BD4680BD80B400AF8C
:107C6000064B5A68054B1B689A420CBF0123002340
:107C7000DBB21846BD465DF8047B7047F82E002045
:107C800080B598B000AFFFF7E9FF0346002B01D0A5
:107C90000023A9E1924B0022C3F81824BFF34F8FB1
:107CA00000BF8F4B5B683B618D4B9B683B643A69BF
:107CB0003B6C134002339B00894A134404337B64BA
:107CC0000023FB650023BB650023FB6307F1100362
:107CD0001946786CFFF784FD0346002B19D0804BC2
:107CE000D3F81834002B14D17D4B1A683B699A42A3
:107CF00005D87B4B1B687A4A5360002374E13A69CC
:107D00003B6C134002339B00754A134404337B647D
:107D1000DCE700237B6511E03B695A1C3A613A6C51
:107D200013407A6D9200391D0A446D4902339B005D
:107D30000B445B6813607B6D01337B657B6D012BAE
:107D4000EAD93B7903F00303DBB2022B40F09280C7
:107D5000FB88C3F389139BB27B63FB88C3F389134E
:107D60009BB2502B28BF50239BB23B633B6BC3F3AA
:107D700009039AB2FB8862F38F13FB803B6B0833D5
:107D8000FB623B79C3F3C203DBB2FB63F96A55487C
:107D900004F026FDF865FB6D002B00F0C480F86D43
:107DA00004F0ACFD391DBB6D0822F86D04F054FEE3
:107DB000BB6D0833BB653B69DA433B6C1340013351
:107DC0009B00BB623A6BBB6A9A423DD9BB6A002BEF
:107DD00008D03A693B6C134002339B00404A13447D
:107DE000043300E0404B3B62BB6A002B02D0BB6A0D
:107DF000DBB201E03B6BDBB2FB77BB6A002B01D04F
:107E0000394B00E00023BB61BB6A002B06D03B6B03
:107E1000DAB2BB6ADBB2D31ADBB200E00023FB7537
:107E2000FA7FBB6D396AF86D04F016FEFB7FBA6D00
:107E30001344BB65BB69002B15D0FA7DBB6DB969D6
:107E4000F86D04F009FE0EE03A693B6C1340023312
:107E50009B00234A134404337B62BB6D3A6B796AFF
:107E6000F86D04F0F9FD7B6B03339A083B6913440A
:107E70003B6158E03B7903F00303DBB2012B52D1A5
:107E8000BB88C3F38313DBB2062B28BF0623DAB209
:107E9000BB8862F38913BB80BB88C3F38313DBB257
:107EA0000233BB633B79C3F3C203DBB2FB63BB6B3F
:107EB0009B0019460B4804F093FCF865FB6D002B02
:107EC00031D0F86D04F01AFD391DBB6D0822F86D34
:107ED00004F0C2FDBB6D0833BB6500237B651AE06F
:107EE000F82E00207CDB0300042F00203B695A1C85
:107EF0003A613A6C134002339B003D4A1344191D0A
:107F0000BB6D0422F86D04F0A7FDBB6D0433BB65A7
:107F10007B6D01337B65BB88C3F38313DBB21A46E9
:107F20007B6D9342E2D3FB6D002B3DD0304BD3F8F9
:107F300010343B652E4BD3F81834002B1BD0F86D52
:107F400004F0ECFC4AE0002387F84F30386DFFF76F
:107F5000A8FB0346002B02D0012387F84F3097F887
:107F60004F30002B03D0F96D386DFFF763FB3B6D8D
:107F7000DB681B683B653B6D002BE4D1F86D04F0BA
:107F8000CDFC0023FB70FB1C184600F035FE184B9F
:107F9000D3F81834002B02D13B69154A5360FB78A3
:107FA000184600F034FE19E0114BD3F81034BB64CE
:107FB00006E0B86CFFF75AFBBB6CDB681B68BB6460
:107FC000BB6C002BF5D10B4A0B4BD31ADB081B04FF
:107FD00043F0020309491846FFF7F0FDFFF73EFEA4
:107FE000034683F00103DBB218466037BD4680BD0F
:107FF000F82E0020C0DB030090DB030010AF03006D
:1080000080B582B000AF0D4BD3F810347B600B4BC2
:10801000012283F8202409E07868FFF734FB7868B0
:10802000FFF717FB7B68DB681B687B607B68002BB6
:10803000F2D100BF00BF0837BD4680BDF82E00203A
:1080400080B483B000AF7860396000BF0C37BD46A4
:108050005DF8047B7047000090B585B002AF786092
:1080600039607B68DB88002B0AD07B68DB881A4686
:108070001F4B009313461F4A1F49386803F037FB14
:108080007B681B7A052B2ED07B685B7A002B12D085
:108090007B689B881A467B681B7A19461046FFF757
:1080A0006BFB03461A46154B53F822301A46144907
:1080B000386803F01CFB7B681B6819463868FFF7BB
:1080C000BFFF7B681B7A1A460E4B53F822407B6831
:1080D0009B8800211846FFF731FB034622460A49D8
:1080E000386803F004FB00BF0C37BD4690BD00BFED
:1080F00044AF030054AF03008CAF0300002D0020F9
:10810000A4AF0300EC2C0020A8AF030080B584B01E
:1081100000AFF860B9601346FB71FB681B7A052B52
:108120000FD0FB685B7A002B06D00D4B1B681A46FC
:108130000C49B86803F0DBFA0B49B86803F0D7FACA
:1081400006E0FB79002B03D00749B86803F0CFFAAB
:10815000B86803F0B3FA00BF1037BD4680BD00BF5A
:10816000002D0020A4AF0300B4AF0300B0B58AB067
:1081700004AFF860B9607A603B60BB6A1B7BFB753B
:10818000BB6A00221A73B96A3868FFF765FF7B681B
:10819000062B7FD801A252F823F000BFB98102005C
:1081A000C3810200D3810200E78102000582020040
:1081B0002D8202005D820200F968B86A03F097FA26
:1081C00069E0BB681B681A46F968B86A03F08FFA61
:1081D00061E0BB681A68BB6804331B68F968B86A59
:1081E00003F085FA57E0BB681A68BB680433196866
:1081F000BB6808331B6800930B46F968B86A03F044
:1082000076FA48E0BB681968BB6804331868BB6835
:1082100008331B68BA680C32126801920093034657
:108220000A46F968B86A03F062FA34E0BB68186875
:10823000BB6804331C68BB6808331B68BA680C321F
:108240001268B968103109680291019200932346BF
:108250000246F968B86A03F04AFA1CE0BB681C6879
:10826000BB6804331D68BB6808331B68BA680C32EE
:108270001268B96810310968B86814300068039052
:108280000291019200932B462246F968B86A03F0E6
:108290002EFA00E000BF0022B96A3868FFF736FF07
:1082A000BB6AFA7D1A7300BF1837BD46B0BD00BF68
:1082B00080B586B000AFF860B9607A603B60BB689B
:1082C000082B5CD83B681B7BFB743B6800221A734D
:1082D00039687868FFF7C0FE00237B6114E07A6993
:1082E000BB689A4209D2FA687B6913441B781A4624
:1082F0002549386803F0FBF903E02449386803F0A6
:10830000F6F97B6901337B617B69072BE7D920494B
:10831000386803F0ECF900237B6124E07A69BB68DC
:108320009A4219D2FA687B6913441B78BB74BB7CF0
:108330007E2B0AD8BB7C0133164A13441B7803F00A
:108340009703002B01D0BB7C00E02E231A46124974
:10835000386803F0CCF903E01049386803F0C7F936
:108360007B6901337B617B69072BD7D9012239688F
:108370007868FFF7CBFE3B68FA7C1A7300E000BF19
:108380001837BD4680BD00BFB8AF0300C0AF0300C3
:10839000C4AF0300F0D90300C8AF0300CCAF0300A3
:1083A00080B586B000AF78600023FB6000233B619E
:1083B0007B687B6107F10C031A46002144F201003F
:1083C00000F01CF800BF1837BD4680BD80B400AF78
:1083D000BFF34F8F00BF074BDB6803F4E062054932
:1083E000054B1343CB60BFF34F8F00BF00BF00BFEF
:1083F000FCE700BF00ED00E00400FA0580B584B0A2
:1084000000AFF860B9607A6072B600BFFFF7F8FDA0
:1084100000BFFFF735FC0346002BFAD1114A124B7F
:10842000D31ADB081B0443F0010310491846FFF779
:10843000C5FB0F4B1B6803F00103002B00D000BEEF
:10844000084A094BD31ADB081B0443F0020309490D
:108450001846FFF7B3FBFFF7B9FF00BF1037BD4663
:1084600080BD00BFC0DB030090DB0300DCAF030076
:10847000F0ED00E0E8AF03002DE9B04382B000AFBB
:10848000144800F035FF034618464FF00001124B28
:10849000D3E9002310EB020841EB0309C7E9008987
:1084A0000E4BD3E90023D7E90001994208BF90425F
:1084B00007D2D7E9002312F1807443F10005C7E920
:1084C0000045D7E90023104619460837BD46BDE8E8
:1084D000B08300BF242D002028330020303300203B
:1084E00080B489B000AF786039607B68FB613B681D
:1084F000BB61FB69D3E90223C7E90423BB69D3E964
:108500000223C7E90223D7E90423D7E902019942EC
:1085100008BF90422CBF01230023DBB2184624374A
:10852000BD465DF8047B7047B0B584B000AF78609D
:108530000023FB73264B1B78002B43D07B68002B5A
:1085400040D07B681B7FDBB2002B3BD0FFF794FF52
:108550007B68D3E90223994208BF90422BD37B6802
:108560001B69002B02D17B6800221A777B685B694C
:108570007A689269104698477B681B69002B21D066
:108580007B681B7FDBB2002B1CD07B68D3E9020128
:108590007B681B691A464FF00003841841EB030502
:1085A0007B68C3E902457B6819460A4804F0C0FAB3
:1085B0000123FB7306E07B681946064804F0B8FA0D
:1085C0000123FB73FB7B18461037BD46B0BD00BFCF
:1085D0002033002008B003002DE9B04388B000AF7D
:1085E000786039600D23FB613B6800221A707B685C
:1085F000D3E90245FFF740FF02460B46B4EB020801
:1086000065EB0309C7E90489D7E90423012A73F15B
:1086100000031BDB3B69B3F5350F05D300F066FAA9
:108620000246144B134403E07B68D3E9022313464C
:10863000FB604FF49603FA6800210F4800F066FDD6
:10864000F861FB69002B05D101230EE000210A48E7
:1086500000F028FEFB690D2B06D17868FFF764FF58
:1086600003461A463B681A70002318462037BD4659
:10867000BDE8B083FFFFB400242D002080B582B098
:1086800000AF044804F07EFA78607B68184608372B
:10869000BD4680BD08B0030080B582B000AF04487D
:1086A00004F08BFA78607B6818460837BD4680BDB9
:1086B00008B0030080B582B000AFFFF7DFFF78603D
:1086C0007B68002B02D07B6800221A777B68002B26
:1086D000F3D100BF00BF0837BD4680BD80B400AFF6
:1086E000074BD3E9002312F1807043F10001044BE2
:1086F000C3E9000100BFBD465DF8047B704700BFC1
:108700002833002080B582B000AF7860074B1B682B
:10871000002B07D0054B1B681846FFF705FF034BDE
:1087200000221A6000BF0837BD4680BD1C33002000
:1087300080B582B000AF7860FFF79EFE02460B4620
:108740000349C1E9002300BF0837BD4680BD00BF13
:108750003033002080B584B000AF7860FFF79CFF15
:10876000F8600023FB72FB68002B44D0294B1B6888
:10877000002B02D10123FB7218E0FB68D3E9020150
:10878000244B1B68D3E90223994208BF90420DD2C3
:108790000123FB721F4B1B681B7FDBB2002B05D034
:1087A0001C4B1B6819461C4804F0C2F9FB7A002BCD
:1087B00029D0FFF763FFF86007F10A031946F8684C
:1087C000FFF70AFF0346002B11D0124B1B68002B4A
:1087D00002D1786800F0DEFB0E4AFB681360BB7ABA
:1087E00083F00103DBB2002BB8D000BF0EE0094BD1
:1087F00000221A60B2E7074B1B68002B05D178688E
:1088000000F0D6FB01E000BF00E000BF00BF103762
:10881000BD4680BD1C33002008B0030080B586B083
:1088200000AF78602D4A07F10C031946104602F09C
:10883000E0FC786149E07B691B78022B2DD0022B8C
:1088400031DC002B02D0012B14D02CE07B695B685B
:108850001B7FDBB283F00103DBB2002B25D07B69E9
:108860005B6801221A777B695B6819461C4804F033
:108870005FF91AE07B695A681A4B1B689A4203D168
:10888000184B00221A6011E07B695B681946144896
:1088900004F0A0F90346FB7408E0FFF70BFF124B4E
:1088A00001221A7002E000BF00E000BF0B4A07F18E
:1088B0000C031946104602F0B6FC084A07F10C03F7
:1088C0001946104602F095FC78617B69002BB2D105
:1088D00000BF00BF1837BD4680BD00BF90330020E9
:1088E00008B003001C3300202033002080B582B084
:1088F00000AF7860786800F0C7FC0346002B01D019
:10890000FFF7ECFE0021786800F0DEFC0346002B48
:1089100002D07868FFF7F6FE0121786800F0D4FCF9
:108920000346002B02D07868FFF702FF7868FFF754
:1089300075FF7868FFF70EFF00BF0837BD4680BDA2
:1089400080B500AF024800F0E1FC00BF80BD00BF71
:10895000242D002080B584B000AF03463960FB7140
:10896000114A07F108031946104602F013FCF8609B
:10897000FB68002B13D0FB68FA791A70FB683A6821
:108980005A60094A07F108031946104602F01CFC18
:108990000346002B01D0FFF7D3FF002300E00423A0
:1089A00018461037BD4680BD9033002080B582B098
:1089B00000AF164B1B683B60154808235822154929
:1089C00002F0A3FB78607B68002B01D07B6819E084
:1089D0003B46114A1946114800F074FA78607B68EA
:1089E000002B01D07B680DE001210C4800F03CFC1D
:1089F00001230B4A0121094800F0E8FA094B012242
:108A00001A707B6818460837BD4680BD04B0030065
:108A10009033002038330020ED880200242D002000
:108A2000FFFF7F002033002080B487B000AFF860E4
:108A30000B467A60FB727B68002B01D107230FE0A5
:108A4000FB681B687B617B697A685A61FB7A012B42
:108A50000CBF01230023DBB21A467B691A61002395
:108A600018461C37BD465DF8047B7047B0B586B02C
:108A700000AFF860B9607A60FB687B617B691B7F3F
:108A8000DBB2002B01D000231AE07B697A689A617F
:108A9000FFF7F2FCBB681A464FF00003841841EB65
:108AA00003057B69C3E902457B691B69002B02D082
:108AB0007B69BA681A6179690020FFF74BFF0346AA
:108AC00018461837BD46B0BD80B584B000AF786099
:108AD0007B68FB60FB6800221A77F9680120FFF7CA
:108AE00039FF034618461037BD4680BD80B500AF3C
:108AF000024800F0FDFB0346184680BD242D0020EF
:108B000080B483B000AFEFF310833B603B687B60C1
:108B100072B600BF7B6818460C37BD465DF8047B13
:108B2000704780B400AF62B600BF00BFBD465DF8BD
:108B3000047B704780B584B000AF7860FFF7E0FF3A
:108B4000F860164B9B68002B1BD1144B01229A60D6
:108B5000134BD3F88020134B1340104A1360104B73
:108B6000104AC3F880200E4BD3F884300B4A536070
:108B70000B4B4FF0FF32C3F884207B6800221A7041
:108B800002E07B6801221A70FB68002B01D1FFF71D
:108B9000C8FF002318461037BD4680BDF43F0020B3
:108BA00000E100E0FC06FFBD80B584B000AF0346E5
:108BB000FB710F4B9B68002B15D0FB79002B12D15A
:108BC000FFF79EFFF8600B4A094B1B681360094AC8
:108BD000074B5B685360064B00229A60FB68002BD2
:108BE00001D1FFF79EFF002318461037BD4680BD18
:108BF000F43F002000E100E080B582B000AF786073
:108C00007868FFF797FF00BF0837BD4680BD80B585
:108C100082B000AF0346FB71FB791846FFF7C4FF33
:108C200000BF0837BD4680BD80B483B000AF0346A7
:108C3000FB71FB7903F01F02074997F907305B09C5
:108C4000012000FA02F241F8232000BF0C37BD4694
:108C50005DF8047B704700BF00E100E080B483B0A2
:108C600000AF0346FB71FB7903F01F02074997F938
:108C700007305B09012000FA02F2403341F823205B
:108C800000BF0C37BD465DF8047B704700E100E093
:108C900080B483B000AF03463960FB7197F90730A9
:108CA000002B0BDA3B68DAB20C49FB7903F00F03B7
:108CB000043B5201D2B20B441A7609E03B68DAB2A7
:108CC000074997F907305201D2B20B4483F80023C9
:108CD00000BF0C37BD465DF8047B704700ED00E037
:108CE00000E100E080B582B000AF03460A46FB71A8
:108CF0001346BB71BA7997F9073011461846FFF74A
:108D0000C7FF00BF0837BD4680BD80B582B000AF49
:108D10000346FB7197F907301846FFF785FF00BF40
:108D20000837BD4680BD000080B584B000AF7860D4
:108D30007B68002B0AD0074B43F00103FB607B6884
:108D40009B01BB60FB68B868984700E000BF103724
:108D5000BD4680BD60B0030080B485B000AFF86050
:108D6000B9607A60FB68BA6802F5A872796843F85E
:108D7000221000BF1437BD465DF8047B704780B4F5
:108D800083B000AF786039607B683A6802F5A872FA
:108D900053F8223018460C37BD465DF8047B704707
:108DA00080B483B000AF786039607B683A68C3F8FC
:108DB000042300BF0C37BD465DF8047B704780B4C8
:108DC00083B000AF786039607B683A68C3F80823E5
:108DD00000BF0C37BD465DF8047B704780B483B09C
:108DE00000AF78600B467B807B887A6813441B68F1
:108DF00018460C37BD465DF8047B704780B485B0DB
:108E000000AF78600B467B807B887A681344002231
:108E10001A607B887A6813441B68FB60FB6800BF9C
:108E20001437BD465DF8047B704780B483B000AF53
:108E300078607B68D3F8043518460C37BD465DF87A
:108E4000047B704780B483B000AF786039607B6882
:108E50003A68C3F8082500BF0C37BD465DF8047BAF
:108E6000704780B483B000AF78600B46FB70FA782F
:108E70007B6813441A460123136000BF0C37BD46BC
:108E80005DF8047B704780B483B000AF78603960D0
:108E90007B683A68C3F8442300BF0C37BD465DF8D1
:108EA000047B704780B483B000AF786039607B6822
:108EB0003A68C3F8482300BF0C37BD465DF8047B11
:108EC0007047000080B586B000AFF860B9607A6086
:108ED000FB685B791946294A7B6842F82130FB68B8
:108EE0005B79274ADB0013441B79002B0ED0082343
:108EF0007B61244A244BD31ADB081B0443F0020392
:108F000022491846FEF75AFE7B6932E0FB681A6870
:108F1000BB681B8819461046FFF794FFFB6893F95E
:108F20000420BB689B7819461046FFF7DBFEFB6800
:108F300093F904301846FFF7E8FEFB685B79104AA6
:108F4000DB00134401221A71FB685B7919460C4A55
:108F5000FB6842F8313000237B610A4A0A4BD31A7E
:108F6000DB081B0443F0030309491846FEF726FEFD
:108F70007B6918461837BD4680BD00BFA43300206A
:108F8000A8330020D0DB030090DB030014B0030003
:108F900038B0030080B582B000AF78607B681B6892
:108FA00000211846FFF75DFF00BF0837BD4680BDB2
:108FB00080B582B000AF78607B681B6804211846DA
:108FC000FFF74FFF00BF0837BD4680BD80B586B0B4
:108FD00000AFF860B9607A60FB704FF48032BB6814
:108FE00002FA03F37B61BB6850339BB29B007B8228
:108FF0007B6823F07F437B60FB681B6879691846B8
:10900000FFF7DDFEFB681B6879691846FFF74AFF2A
:10901000FB681B687A8A11461846FFF7EFFEFB686B
:109020001B687A68B9681846FFF796FEFB681B68EC
:1090300079691846FFF727FFFB78002B05D0FB68FE
:109040001B6879691846FFF7ABFE00BF1837BD46AD
:1090500080BD80B584B000AFF860B9601346FB7185
:10906000FB681B68B9681846FFF70DFFFB79002BFA
:1090700005D0FB681B68B9681846FFF791FE00BF72
:109080001037BD4680BD80B582B000AF78603960D2
:109090007B681B6839681846FFF704FF7B681B680C
:1090A00039681846FFF78BFE00BF0837BD4680BD04
:1090B00080B582B000AF78600B467B807B681B6810
:1090C0007A8811461846FFF789FE0346002B08D020
:1090D0007B681B687A8811461846FFF78FFE0123CC
:1090E00000E0002318460837BD4680BD80B483B039
:1090F00000AF786039607A683B68D31A23F07F4309
:1091000018460C37BD465DF8047B704780B58AB0C1
:1091100000AFF860B9607A603B604FF48032BB68A2
:1091200002FA03F37B62BB6850339BB29B007B84E3
:109130007B6823F07F437B60796AF868FFF7A3FFC1
:10914000FB681B681846FFF770FEF861FB681B6838
:10915000B9681846FFF713FEB861FB681B68FA6927
:10916000B9681846FFF7F8FDFB681B687A8C114652
:109170001846FFF743FEF969B869FFF7B7FF0346E2
:10918000012B09D11020FFF7CFFDFB681B687A8CFB
:1091900011461846FFF732FEFB681B681846FFF7BA
:1091A00044FEF861F9697868FFF7A0FF7861FB6811
:1091B0001B68796A1846FFF766FE7B69012B15D19B
:1091C000FB6818687B6801331A46B968FFF7C4FD6D
:1091D0001020FFF7A9FDFB681B681846FFF725FE66
:1091E0000246FB69934235D00D2339E0FB681B68CA
:1091F0007A68B9681846FFF7AFFDFB681B68184628
:10920000FFF713FEF8617B68013BF9691846FFF729
:109210006DFF78613B68C3F1FF1303F57F437A6903
:109220009A4201D90D231BE07B69002B12D1FB6808
:1092300018687B6801331A46B968FFF78DFDFB6833
:109240001B681846FFF7F1FD0246FB69934201D007
:109250000D2305E00122796AF868FFF7FAFE002382
:1092600018462837BD4680BD80B582B000AF786013
:109270000B46FB70FB781A4602217868FFF7E9FE7F
:1092800000BF0837BD4680BD80B582B000AF7860B2
:109290004FF482717868FFF70BFF034618460837D2
:1092A000BD4680BD80B582B000AF786039604FF4B4
:1092B00080323B6802FA03F319467868FFF7E3FE51
:1092C00000BF0837BD4680BD80B584B000AF786070
:1092D00039603B6850339BB29B00FB81FB89194688
:1092E0007868FFF7E5FE034618461037BD4680BD97
:1092F00080B582B000AF78607B681B681846FFF7C6
:1093000094FD034618460837BD4680BD80B582B03F
:1093100000AF78607B6893F904301846FFF79EFC35
:1093200000BF0837BD4680BD80B500AF034B1B684A
:10933000034A12681046984700BF80BDA43300203E
:10934000A833002080B483B000AF78607B6803F05E
:109350000303002B0CBF01230023DBB218460C379C
:10936000BD465DF8047B704780B584B000AF78607F
:109370000023FB600EE00B4AFB6852F82330002B01
:1093800005D0084AFB6852F8233078689847FB6894
:109390000133FB60FB68032BEDD900BF00BF103722
:1093A000BD4680BDC033002080B483B000AF78607C
:1093B00039607B681B78013B052B61D801A252F80C
:1093C00023F000BFDD930200E59302000B9402003E
:1093D0003D9402005D940200799402003B680022F3
:1093E0001A704EE03B6801221A707B681A893B684C
:1093F0009A817B689A883B68DA817B68DA683B6887
:109400009A603B6800221A743BE03B6802221A70A3
:109410007B681A893B689A817B689A883B68DA8105
:109420007B68DA683B689A607B689B7D062B0CBF83
:1094300001230023DAB23B681A7422E03B6803225E
:109440001A707B68DA883B689A817B681A893B6866
:10945000DA817B68DA683B689A6012E03B68042234
:109460001A707B68DA883B689A813B680022DA814F
:109470003B6800229A6004E03B6805221A7000E015
:1094800000BF00BF0C37BD465DF8047B704700BFCE
:1094900080B485B000AF786039607B68FB60FA68A3
:1094A0003B689A4206D2FB681B68B3F1FF3F01D0CC
:1094B000012300E0002303F00103DBB21846143758
:1094C000BD465DF8047B704780B483B000AF786020
:1094D0007B685B8803339B007A68134418460C371B
:1094E000BD465DF8047B704780B582B000AF786000
:1094F00039607868FFF7E8FF02463B68934201D283
:10950000022311E07B689B884FF6FF72934208D0DC
:109510007B681B88002B04D07B689B68B3F1FF3FFE
:1095200001D1012300E0002318460837BD4680BD65
:1095300080B582B000AF78607B68002B13D00E4BF3
:10954000DB681A467B6893420DD30B4B1B691A46A6
:109550007B68934207D87868FFF7F4FE0346002B38
:1095600001D0012300E0002303F00103DBB2184621
:109570000837BD4680BD00BFB02D002080B483B049
:1095800000AF78607B68002B04D07B681B680C4AB6
:10959000934201D003230DE07B6804331B68094A22
:1095A000934204D0084A934203D1012302E00023EE
:1095B00000E0032318460C37BD465DF8047B704776
:1095C000DEC0ADDEFE011EF1FF011EF180B485B0EC
:1095D00000AF78607B681B68B3F1FF3F06D07B6803
:1095E0001B68104A934201D0002314E00123FB6062
:1095F0000CE0FB689B007A6813441B68B3F1FF3FE3
:1096000001D0002307E0FB680133FB60FB68B3F582
:10961000806FEED3012318461437BD465DF8047BF6
:10962000704700BFDEC0ADDE80B483B000AF03463C
:109630000A46FB801346BB80FA88124913469B00FA
:1096400013449B000B4408331A88BB881344BB8027
:10965000FA880C4913469B0013449B000B440A33C1
:109660001A88BB881344BB80BB88B3F5806F94BF56
:1096700001230023DBB218460C37BD465DF8047B9E
:10968000704700BF7034002080B485B000AF7860B0
:10969000396048F20963FB6000237B8122E07A890C
:1096A000154913469B0013449B000B4404331B686D
:1096B0003A689A4213D97A890F4913469B0013449A
:1096C0009B000B4404331B6803F580533A689A42AD
:1096D00005D20023FB607B687A891A8005E07B89CC
:1096E00001337B817B89012BD9D9FB68184614375C
:1096F000BD465DF8047B70477034002080B588B0AB
:1097000000AFF860B9607A60FB6803F58053BB6115
:10971000FB680833FB60BB6802221A80FB68FB61B0
:109720002FE0B969F869FFF7DFFE0346FB75FB7DA3
:10973000002B0AD1FB699A68174B1B689A4212D911
:10974000FB699B68144A13600DE07B68002B02D014
:109750007B6801221A70FB7D022B04D1BB684FF499
:1097600080621A8014E0BB681A88FB695B88134426
:109770009BB203339AB2BB681A80F869FFF7A4FE64
:10978000F861B969F869FFF783FE0346002BC8D179
:109790002037BD4680BD00BFD033002080B483B0E9
:1097A00000AF786039603B689B7D022B09D97B68EC
:1097B0001A893B68DB8813449BB203339AB27B68F7
:1097C0001A817B685A893B68DB88D31A9BB2033BBA
:1097D0009AB27B685A8100BF0C37BD465DF8047BA6
:1097E0007047000080B582B002AF074B1B68194676
:1097F000002300930823054A054802F01FFB034697
:109800001846BD4680BD00BF9834002068B00300F4
:10981000B02D002080B584B002AF78607968002355
:1098200000930823044A054802F008FB0346184643
:109830000837BD4680BD00BF70B00300B02D0020CA
:1098400080B584B000AF03463960FB800023FB7312
:10985000FB8803337B817B8940F2FE32934202D93D
:1098600048F208633EE00023BB8131E0BA891F491A
:1098700013469B0013449B000B441B78002B24D100
:109880007A89BB8911461846FFF7CEFE0346002BA6
:109890001BD00123FB733B68BA891A80BA8913492C
:1098A00013469B0013449B000B440A331988BA8962
:1098B0007B890B4498B20D4913469B0013449B00CF
:1098C0000B440A3302461A8005E0BB890133BB8191
:1098D000BB89012BCAD9FB7B002B01D0002301E0FF
:1098E00048F2066318461037BD4680BD703400202C
:1098F00080B483B000AF03460A46FB801346BB80AA
:10990000BA880E4913469B0013449B000B440A334C
:109910001A88FB88D31A9BB2BA88033B98B20749CE
:1099200013469B0013449B000B440A3302461A80E3
:1099300000BF0C37BD465DF8047B704770340020D3
:1099400080B500AF0121034801F0DCFD0346184655
:1099500080BD00BFD033002080B584B000AF034687
:109960003960FB80FA88244913469B0013449B000E
:109970000B4404331B6803F58053BB603B681B68D2
:10998000FB60FB68002B04D0F868FFF79DFDF860D2
:1099900025E0FA88184913469B0013449B000B44AA
:1099A00004331B680833FB6019E0B968F868FFF7F7
:1099B0009BFD0346022B10D0022B10DC002B02D0A3
:1099C000012B05D00BE03B68FA681A6001230EE01A
:1099D000F868FFF779FDF86001E0002307E0B96857
:1099E000F868FFF755FD0346002BDED1002318462B
:1099F0001037BD4680BD00BF7034002080B584B0F4
:109A000000AF786039607B685B681846FFF790FDAF
:109A10000346002B19D07B681A89254B1B899A4273
:109A200013D17B681A687B685B689B689A420CD18B
:109A30007B685B6819463868FFF726FE0346002BF3
:109A40000CBF01230023DBB22DE03B6800221A800B
:109A500024E00023BB6010E0BB68FB60FB689A68F1
:109A60007B681B689A4208D1BA687B685A60104BC1
:109A70001A897B681A81012315E03B681B8807F16E
:109A8000080211461846FFF767FF0346002BE3D193
:109A90003B681B8801339AB23B681A803B681B887D
:109AA000012BD6D9002318461037BD4680BD00BF14
:109AB000A034002080B586B000AFF860B9607A604D
:109AC0003B60324B1B78DBB283F00103DBB2002B2F
:109AD00002D048F2016355E07B68002B02D03B685E
:109AE000002B49D148F204634CE03B689B8819463F
:109AF000274A0B469B000B449B0013441B78002B0A
:109B000033D124E03B681B687B61FB68002B06D0E7
:109B10007B699A88FB681B889A4200D017E0BB6873
:109B2000002B06D07B691A88BB681B889A4200D03C
:109B30000DE07B699A687B681A603B681A687B68ED
:109B40005A60144B1A897B681A8100231AE03B681B
:109B50009B883A6811461846FFF7FEFE0346002B25
:109B6000D0D13B6800221A6000E000BF3B689B88B0
:109B700001339AB23B689A803B689B88012BB4D929
:109B800048F2096318461837BD4680BDB03300203F
:109B900070340020A034002080B584B000AF78601D
:109BA000074B7968184601F0F5FAF8601C2200218D
:109BB000F86810F0D3FBFB6818461037BD4680BD2F
:109BC0006034002080B582B000AF7860044B7968C3
:109BD000184601F0F9FA00BF0837BD4680BD00BF46
:109BE0006034002080B582B000AF7860044B7968A3
:109BF000184601F0FEFA034618460837BD4680BDF8
:109C00006034002080B582B000AF7860044B796882
:109C1000184601F008FB00BF0837BD4680BD00BFF5
:109C20006034002080B500AF0121054801F083FCBD
:109C30000346002B14BF01230023DBB2184680BD6E
:109C4000B833002080B586B000AF00237B610023CD
:109C50007B8203233B820023FB730023BB81D8E07C
:109C6000BB891A03724BDB681344BB60B868FFF70B
:109C700085FC0346FB71FB79032B08D0032B00F313
:109C8000C480002B58D0012B00F08580BDE0B8685F
:109C9000FFF79CFC0346002B34D0664B1B68002B5F
:109CA00023D07A8A644913469B0013449B000B44DB
:109CB00002221A707A8A604913469B0013449B0063
:109CC0000B440433BA681A607A8A5B4913469B00D6
:109CD00013449B000B44083302221A80574A7B8AA4
:109CE00053807B8A01337B8207E0524ABB68136052
:109CF000504B02229A800123FB737B6943F00103DE
:109D00007B6183E03B8A013B3B827A8A4A49134666
:109D10009B0013449B000B440433BA681A607A8A90
:109D2000454913469B0013449B000B4403221A70C1
:109D30007B8A01337B8269E07A8A3F4913469B0024
:109D400013449B000B4400221A707A8A3A49134646
:109D50009B0013449B000B440433BA681A607A8A50
:109D600013469B0013449B000833334A99187A8AA0
:109D700013469B0013449B0010332F4A13441A468A
:109D8000B868FFF7BBFC7B6943F002037B617B8A09
:109D900001337B823AE0FB7B002B23D07A8A264971
:109DA00013469B0013449B000B4402221A707A8ACC
:109DB000204B1968204813469B0013449B00034422
:109DC000043319607A8A1C4913469B0013449B0094
:109DD0000B44083302221A80184A7B8A53807B8AFC
:109DE00001337B82134ABB68136000221449B868B0
:109DF000FFF784FC0F4B9B88022B01D1042300E06A
:109E000008237A6913437B6100E000BFBB890133FB
:109E1000BB81BB89022B7FF623AF3B8A012B01D884
:109E200000237B617B69DBB218461837BD4680BDD5
:109E3000B02D00209834002070340020A034002081
:109E40009C34002080B586B002AF786039607B68B2
:109E500002229A7539687B681A1D00230093042337
:109E6000074801F0EBFFF860FB68002B01D10023ED
:109E700001E048F20D6318461037BD4680BD00BFB3
:109E8000B02D002080B586B002AF786039607B6865
:109E90001B69002B01D0032200E001227B689A7528
:109EA0003B68083319467B6803F10C0200230093DA
:109EB0000423074801F0C2FFF860FB68002B01D1C2
:109EC000002301E048F20D6318461037BD4680BDFF
:109ED000B02D002080B586B002AF786039607B6815
:109EE0001B78032B01D1052200E006227B689A75BE
:109EF0003B68043319467B6803F108020023009392
:109F00000423074801F09AFFF860FB68002B01D199
:109F1000002301E048F20D6318461037BD4680BDAE
:109F2000B02D002080B586B002AF78600B467B80F4
:109F300079680023009304230C4A0D4801F07EFF4A
:109F4000F860FB68002B02D048F20D630AE07A88C3
:109F5000084913469B0013449B000B441033012215
:109F60001A70002318461037BD4680BD78B0030034
:109F7000B02D00207034002080B588B000AF78602C
:109F800007F1080300221A605A609A607B68DB6858
:109F9000BB6007F1160207F1080311461846FFF7E8
:109FA0002DFD0346002B11D0FB68BB61BB699A886D
:109FB0007B68DA80BB691A887B681A81FB68FA8A39
:109FC00011461846FFF7AEFFF86102E048F2096358
:109FD000FB61FB6918462037BD4680BD80B586B061
:109FE00000AF78607B68981D07F108020D4B0021D7
:109FF000FFF760FD78617B69002B08D1FB68094A97
:10A00000928811461846FFF78DFF786104E0082218
:10A010000021044810F0A2F97B6918461837BD46A4
:10A0200080BD00BFB034002080B586B002AF78603C
:10A0300039607B6801229A753B680C3318467B684F
:10A040001A697B68DB889B00002100910146074864
:10A0500001F0F4FEF860FB68002B01D1002301E061
:10A0600048F20D6318461037BD4680BDB02D002064
:10A0700080B483B000AF174B1B8901339AB2154BE4
:10A080001A81144B00225A80124B00221A730023AB
:10A09000FB8014E0FA88104913469B0013449B0090
:10A0A0000B441A78FB88002A0CBF01220022D1B28F
:10A0B000084A13440A469A72FB880133FB80FB88E6
:10A0C000012BE7D900BF00BF0C37BD465DF8047B0C
:10A0D000704700BFA03400207034002080B485B0E9
:10A0E00000AF78600023FB730023BB8129E0BB89AC
:10A0F000194A13449B7A002B20D0BB89164A13447B
:10A1000000229A72BA89154913469B0013449B009A
:10A110000B440C331B68002B10D1BA890F4913462E
:10A120009B0013449B000B4410331B78002B05D07D
:10A130007B68BA891A800123FB7305E0BB89013370
:10A14000BB81BB89012BD2D9FB7B18461437BD4696
:10A150005DF8047B704700BFA034002070340020FD
:10A1600080B500AF084B05221A70084B02229A8076
:10A17000064B1B68194600230122054801F042FFE7
:10A180000346184680BD00BFA0340020983400204C
:10A19000B02D002080B582B000AF154B5B887B806E
:10A1A0007A88144913469B0013449B000B440C33DC
:10A1B0001B68002B13D10E4B04221A707A880D49AC
:10A1C00013469B0013449B000B4404331B68194641
:10A1D00000230122084801F015FF786002E0FFF734
:10A1E000BFFF78607B6818460837BD4680BD00BF5A
:10A1F000A034002070340020B02D002080B586B03F
:10A2000002AF104B5B68FB600F4B1A680E4B9B88CC
:10A210009B001344BB60FB685B880333FB80094BE6
:10A2200003221A70B968074B5A68FB889B0000200C
:10A230000090064801F002FE034618461037BD465E
:10A2400080BD00BFA034002098340020B02D002035
:10A2500080B582B000AF0A4B5B880A491846FFF709
:10A260007BFB0346002B03D0FFF7C8FF786002E0BA
:10A27000FFF790FF78607B6818460837BD4680BDC1
:10A28000A0340020A434002080B500AF094B062282
:10A290001A70084B5B881946074A0B469B000B4413
:10A2A0009B00134404331B681846FFF7B3FA0346B8
:10A2B000184680BDA03400207034002080B500AF67
:10A2C000054B07221A70044B00225A60FFF78AFAE6
:10A2D0000346184680BD00BFA034002080B500AF03
:10A2E0000C48FFF7FBFE034683F00103DBB2002BB3
:10A2F0000BD0094B00221A70074B00225A80064BE4
:10A3000000225A6041F61D5302E0FFF7A1FF034609
:10A31000184680BDA2340020A034002080B483B051
:10A3200000AF0A4B5B687B607B685B8803337B8094
:10A33000074B9A887B8813449AB2054B9A8000BFDA
:10A340000C37BD465DF8047B704700BFA034002089
:10A350009834002080B483B000AF194B1B687B6039
:10A36000184B5B881946184A0B469B000B449B0010
:10A37000134404331B68124A1360124B5B8819465E
:10A38000114A0B469B000B449B00134404337A682C
:10A390001A600C4B5B881946094B98880A4A0B4691
:10A3A0009B000B449B001344083302461A80044B65
:10A3B00002229A8000BF0C37BD465DF8047B7047CF
:10A3C00098340020A03400207034002080B500AF05
:10A3D0001A4B1B78072B2DD801A252F823F000BF8F
:10A3E00001A4020035A4020035A402000DA402005D
:10A3F00019A4020025A4020025A402002DA4020035
:10A40000FFF736FE0D4B01221A7014E0FFF786FFAE
:10A410000A4B02221A700EE0FFF79CFF074B062240
:10A420001A7008E0054B07221A7004E0034B012262
:10A430001A7000E000BF00BF80BD00BFA034002044
:10A4400080B586B000AF7860396048F20E637B61FA
:10A450007B68002B05D05C4B00225A604FF406430A
:10A46000AEE03B681B79032B00F29D8001A252F8FD
:10A4700023F000BF85A4020093A402000DA50200F2
:10A480002DA502003B6801221A71FFF7ABF9786134
:10A490008CE00023FB7400233B8225E03A8A4B4981
:10A4A00013469B0013449B000B441B78022B18D1CE
:10A4B0003A8A464913469B0013449B000B440022F2
:10A4C0001A700123FB743A8A404913469B001344D7
:10A4D0009B000B4404331B681846FFF79BF9786117
:10A4E00005E03B8A01333B823B8A012BD6D9FB7CBA
:10A4F00083F00103DBB2002B57D0334B01221A70DB
:10A50000314B00225A6041F61D5359E03B6800224E
:10A510001A712F4B02229A802D4B1B68194600237B
:10A5200001222C4801F06EFD78613FE03B6800227B
:10A530001A71274B1B681846FFF76CF97861264B98
:10A540005B88FB81224B1B68BB60FA891F4913465D
:10A550009B0013449B000B4404331B681C4A13608C
:10A56000FA891A4913469B0013449B000B44043399
:10A57000BA681A60FA89164B9888144913469B00EA
:10A5800013449B000B44083302461A80104B0222EE
:10A590009A80FA890D4913469B0013449B000B4493
:10A5A00000221A7002E000BF00E000BF7B69002BB0
:10A5B00005D0054B00225A6048F20D6300E00023ED
:10A5C00018461837BD4680BDB033002070340020D7
:10A5D00098340020B02D0020A034002080B586B033
:10A5E00000AF786039603B689B8A1A4613469B002F
:10A5F00013449B003B4A13443B617B68002B06D00D
:10A6000039683869FFF7CAF84FF4064365E03B69DB
:10A610005A683B691B899B001344FB603B689B7D28
:10A62000062B4ED801A252F823F000BF71A60200FB
:10A6300095A602007DA6020089A6020049A6020096
:10A64000A1A60200BBA60200274B00225A603B686D
:10A650009B69254A136025492348FFF7CFF9034634
:10A6600083F00103DBB2002B02D048F2096334E02F
:10A67000F9683868FFF7E6FB786126E0F968386822
:10A68000FFF700FC786120E0F9683868FFF7CCFC40
:10A6900078611AE0F9683868FFF71CFC786114E00B
:10A6A0003B6806229A75104B5B68104A1288114667
:10A6B0001846FFF737FC786107E041F61D537B61D0
:10A6C00003E048F20E637B6100BF7B69002B03D07F
:10A6D00039683869FFF762F87B6918461837BD4654
:10A6E00080BD00BF70340020B8340020C434002086
:10A6F00080B584B000AF786039607B68002B02D0F1
:10A700004FF4064329E03B681B79022B1BD0022B38
:10A710001DDC002B02D0012B08D018E03B68022280
:10A720001A713868FFF728FCF86015E03868FFF701
:10A7300055FCF860FB6848F2096293420BD141F680
:10A740001D53FB6007E041F61D53FB6004E048F237
:10A750000E63FB6000E000BFFB6818461037BD4683
:10A7600080BD000080B584B000AF78607B68002BAE
:10A7700002D04FF406433CE0204B1B7B002B03D060
:10A780001E4B00221A7301E0FFF720FE1B4B1B78C3
:10A79000013B062B28D801A252F823F0B9A70200EA
:10A7A000C1A70200C9A70200D1A70200E9A70200C1
:10A7B000D9A70200E1A70200FFF790FDF86017E0BB
:10A7C000FFF746FDF86013E0FFF718FDF8600FE0B3
:10A7D000FFF7E0FCF8600BE0FFF756FDF86007E0DC
:10A7E000FFF76CFDF86003E048F20E63FB6000BF0A
:10A7F000FB6818461037BD4680BD00BFA03400205E
:10A8000080B588B000AF78603C4B1B68002B05D149
:10A810003B48FFF7E7F90346384A1360374B1B689C
:10A820001B78013B052B2CD801A252F823F000BF66
:10A8300049A8020059A8020059A8020069A802000C
:10A8400069A8020079A802002C4B1B681946786899
:10A85000FFF7F6FD786018E0284B1B68194678680A
:10A86000FFF7BCFE786010E0244B1B68194678683F
:10A87000FFF73EFF786008E07868FFF773FF7860C5
:10A8800003E048F20E637B6000BF7B68002B2ED094
:10A8900007F10C0300221A605A609A60DA601A61AC
:10A8A0007B6841F61D52934201D07B6800E0002393
:10A8B0003B61124B1B6807F10C0211461846FEF76C
:10A8C00073FD07F10C031846FEF74EFD0B4B0022FB
:10A8D0001A6000237B600A48FFF794F9FFF7A2F99A
:10A8E000034683F00103DBB2002B02D18CE700BFEB
:10A8F00000E000BF00BF2037BD4680BDC834002047
:10A90000CC34002080B500AF0121054800F0E1FD06
:10A910000346002B02D10020FFF772FF00BF80BD6D
:10A92000B833002080B582B000AF78607B685B6888
:10A930001846FFF765FF00BF0837BD4680BD000021
:10A9400080B58AB000AFF860B9607A60FB70002310
:10A95000BB840023FB844F4B1B78DBB283F00103E5
:10A96000DBB2002B02D048F201638EE0BB68002B03
:10A9700002D148F2046388E0BB681B884FF6FF727F
:10A98000934203D0BB685B88002B02D148F203637B
:10A990007BE0BB685B681846FEF7D4FC034683F097
:10A9A0000103DBB2002B02D048F202636DE07B684A
:10A9B000002B0FD1BB689B68FB8407F11A02FB8C4C
:10A9C00011461846FEF73CFF38623B6A002B07D061
:10A9D0003B6A5AE07B681B887B837B685B88FB84CF
:10A9E00007F114031846FFF7D7F8F861FB69002B4D
:10A9F00008D17A8BFB8C11461846FEF779FF48F296
:10AA0000076342E0FB69FA781A70FB6900229A75C5
:10AA10007A8BFB699A82BB685A68FB691A61FEF7F8
:10AA20008FFF0246FB69DA60BB681A88FB691A81EE
:10AA3000BB685A88FB699A80FB69FA8CDA80FB78DC
:10AA4000032B06D1FB6904229A75FB681A68FB691F
:10AA50009A61FB69BA8C5A8107F114031846FFF713
:10AA6000B1F8FB68002B0DD0FB6800225A60FB692F
:10AA7000DA68FB681A60FB6800229A72064B1A8932
:10AA8000FB681A81FFF73EFF002318462837BD46B2
:10AA900080BD00BFB0330020A034002080B584B05A
:10AAA00000AF78600C4B1B68042B03D148F20B639A
:10AAB000FB600BE0084B1B6808497A6841F82320CB
:10AAC0000121054800F01EFD0023FB60FB681846CD
:10AAD0001037BD4680BD00BFBC330020C03300200E
:10AAE00080B485B000AF40F6F8731B68B3F1FF3F48
:10AAF00002D1104B1B6802E040F6F8731B68FB6044
:10AB00004FF080531B69BB604FF080535B697B60E3
:10AB1000FB68B3F1FF3F04D17B68BA6802FB03F323
:10AB200000E0FB683B603B6818461437BD465DF8A3
:10AB3000047B70471410001080B582B000AF4FF452
:10AB400040537B60FFF7CCFF0346064A1361054B79
:10AB50001A697B68D31A034AD36000BF0837BD4621
:10AB600080BD00BFB02D002080B500AFFFF7E4FF2F
:10AB700000220349034801F019F90346184680BD35
:10AB800088B20300B02D002080B500AF03481C231D
:10AB90008C22034900F0B9FA00BF80BD6034002068
:10ABA000D433002080B58AB000AF07F1080300223B
:10ABB0001A605A609A60DA601A61434B1B78DBB204
:10ABC000002B06D007F108031846FEF7CDFB002343
:10ABD00076E03E4800F0C8FC0346002B01D000237D
:10ABE0006EE0FFF7C1FF78627B6A002B01D07B6AC1
:10ABF00066E0FFF7C9FFFFF725F8034687F8233023
:10AC000097F82330062B08D0062B13DC002B01D03D
:10AC1000022B0FD148F20A6352E02B4B01221A702B
:10AC2000294B00225A6007F108031846FEF79CFBE7
:10AC3000002345E000BF3B1D1846FEF7ADFFF8615D
:10AC4000FB69002B02D148F2076339E0FB6901225E
:10AC50001A7097F82330013B0A2B29D801A252F829
:10AC600023F000BF91AC0200B1AC020091AC020035
:10AC7000B1AC0200A9AC0200B1AC0200A9AC020068
:10AC8000B1AC020099AC0200A1AC020099AC020088
:10AC9000FB6900221A710CE0FB6903221A7108E0BB
:10ACA000FB6902221A7104E0FB6901221A7100E0BB
:10ACB00000BF3B1D1846FEF785FFFFF723FE00236C
:10ACC00018462837BD4680BDB0330020B43300207D
:10ACD00080B584B000AF786039607B68002B02D00B
:10ACE0003B68002B02D148F2046329E007F10A0314
:10ACF00019467868FEF782FE0346002B1ED07B685B
:10AD00005B68FB607B891A4613469B0013449B00DB
:10AD100008330D4A134404330121184600F0F2FBB6
:10AD20003B68FA681A607B685B6803F10C023B6859
:10AD30005A607B6801229A72002301E048F209639D
:10AD400018461037BD4680BD7034002080B584B0F1
:10AD500000AF78607B68002B02D148F2046339E0D1
:10AD600007F10A0319467868FEF748FE0346002BF0
:10AD70002CD07B891946194A0B469B000B449B003B
:10AD800013440C331B68002B1CD07B689B7A002B70
:10AD900018D07B891A46114913469B0013449B0027
:10ADA0000B440C331B68591E0C4813469B0013447C
:10ADB0009B0003440C3319607B6800229A720023C5
:10ADC000FB6006E048F20563FB6002E048F20963BD
:10ADD000FB60FB6818461037BD4680BD703400200C
:10ADE00080B582B000AF78603960022300223968F4
:10ADF0007868FFF7A5FD034618460837BD4680BDB5
:10AE000080B582B000AF786039607B68002B02D1DA
:10AE100048F2046306E00323002239687868FFF7EC
:10AE20008FFD034618460837BD4680BD80B584B007
:10AE300000AF0346FB801A4B1B78DBB283F00103A3
:10AE4000DBB2002B02D048F2016324E0FB884FF60E
:10AE5000FF72934202D148F203631CE007F108033A
:10AE60001846FEF799FEF860FB68002B02D148F205
:10AE7000076310E0FB6805221A70FB6801221A7153
:10AE8000FB68FA88DA8007F108031846FEF79AFE95
:10AE9000FFF738FD002318461037BD4680BD00BFC0
:10AEA000B033002080B582B000AF154B1B78DBB209
:10AEB00083F00103DBB2002B02D048F201631BE0F8
:10AEC0003B461846FEF768FE78607B68002B02D18F
:10AED00048F2076310E07B6806221A703B4618466A
:10AEE000FEF770FE074B1B78002B02D0054B0122AA
:10AEF0001A73FFF707FD002318460837BD4680BDCB
:10AF0000B0330020A034002080B584B000AFBA6018
:10AF10007B600346FB810B46BB8107F10C0107F107
:10AF20000E007B68BA68FEF7C5FD03461846103769
:10AF3000BD4680BD80B584B000AF0346B9607A607D
:10AF4000FB8107F10E017B68BA680020FEF7B2FDB5
:10AF5000034618461037BD4680BD80B584B000AFAB
:10AF60000346B9607A60FB8107F10E007B68BA681E
:10AF70000021FEF79FFD034618461037BD4680BDF1
:10AF800080B483B000AF786039607B68002B02D05A
:10AF90003B68002B02D148F2046304E07B681A6826
:10AFA0003B681A60002318460C37BD465DF8047BE9
:10AFB000704780B487B000AF786039607B6853E831
:10AFC000011F8AB2D88902449889824228BF121A86
:10AFD0001889824202BFBFF32F8F002307E0C2EA25
:10AFE000010243E801200028E9D14FF00103FB737F
:10AFF0007861B9603A61BA683B681A60FB7BDBB282
:10B0000018461C37BD465DF8047B704780B485B098
:10B0100000AF7860796851E8013FC3EA034341E833
:10B020000132002AF7D1FA60BB6000BF1437BD4679
:10B030005DF8047B704780B487B000AF78603960FA
:10B040007B6853E8021F1FFAA1F2D888824202BF30
:10B05000BFF32F8F00230DE0D889024498898242E4
:10B0600028BF121AC1EA024243E802200028E8D1B0
:10B070004FF00103FB737861B9603A61BA683B68CD
:10B080001A60FB7BDBB218461C37BD465DF8047BBB
:10B09000704780B485B000AF7860796851E8023FAE
:10B0A000C3EA234341E80232002AF7D1FA60BB60C9
:10B0B00000BF1437BD465DF8047B704780B487B08D
:10B0C00000AF78607B6853E8021FDA88B1EB314F3C
:10B0D0004FF0000017BF89B242EA024241EA024241
:10B0E00004E05968B1EB314F08BF012043E8022169
:10B0F0000029E8D1F87379613A61FB7BDBB218462D
:10B100001C37BD465DF8047B704780B485B000AF46
:10B11000F860B96011461A460B46FB801346BB80A7
:10B12000BB68002B01D10E231BE0FB88BA88B3FB60
:10B13000F2F102FB01F29B1A9BB2002B01D0092312
:10B140000FE0FB68BA681A60FB6800225A60FB686F
:10B1500000229A60FB68FA889A81FB68BA88DA81D3
:10B16000002318461437BD465DF8047B704780B550
:10B1700084B000AF78607868FFF7A0FF0346FB73E8
:10B18000FB7B002B01D0002300E011231846103771
:10B19000BD4680BD80B584B000AF786039603B6843
:10B1A00019467868FFF705FF0346002B07D07B6838
:10B1B0001B683A6812881344FB60FB6800E00023B8
:10B1C00018461037BD4680BD80B582B000AF7860AC
:10B1D00039603B681A883B685B889A4204D178687A
:10B1E000FFF714FF012300E0002318460837BD468F
:10B1F00080BD80B584B000AF786039603B68194687
:10B200007868FFF718FF0346002B07D07B681B68A0
:10B210003A6852881344FB60FB6800E0002318463C
:10B220001037BD4680BD80B582B000AF7860396010
:10B230003B681A883B685B889A4204D17868FFF7BC
:10B2400028FF012300E0002318460837BD4680BDD3
:10B2500080B584B000AF786039603B685B099B00C3
:10B260007A681A443B6803F01F03012101FA03F3D3
:10B270001946104600F0E2F8F86000BF1037BD46EE
:10B2800080BD80B582B000AF786039603B685B09F3
:10B290009B007A681A443B6803F01F03012101FAFE
:10B2A00003F31946104600F0B0F802463B6803F07D
:10B2B0001F0322FA03F303F00103002B14BF012341
:10B2C0000023DBB218460837BD4680BD80B584B088
:10B2D00000AF786039603B685B099B007A681A446C
:10B2E0003B6803F01F03012101FA03F3DB43194616
:10B2F000104600F0D5F8F86000BF1037BD4680BD9D
:10B3000080B483B000AF786039603B685B099B0014
:10B310007A6813441A683B6803F01F0322FA03F3A8
:10B3200003F00103002B14BF01230023DBB21846F6
:10B330000C37BD465DF8047B704780B58AB000AF1E
:10B340007860396000237B623BE07B6A9B007A680F
:10B3500013441B68DB43BB61BB6993FAA3F37B61B6
:10B360007B69B3FA83F33B6223E07B6A5B013A6A51
:10B370001344FB61FA693B689A421ED2F969786806
:10B38000FFF77FFF034683F00103DBB2002B01D000
:10B39000FB691EE07B6A9B007A6813441B68DB43F1
:10B3A0003B613B6993FAA3F3FB60FB68B3FA83F359
:10B3B0003B623B6A1F2BD8D900E000BF7B6A013398
:10B3C0007B623B68013B5B0901337A6A9A42BCD3DA
:10B3D0003B6818462837BD4680BD90B486B000AFA4
:10B3E000786039607B683A6853E8004F104643E85C
:10B3F000000191F0000FF7D17C613861F9607B6941
:10B4000018461837BD4690BC704790B486B000AF60
:10B41000786039607B683A6853E8004F44EA02007C
:10B4200043E8000191F0000FF6D17C613861F960CA
:10B430007B6918461837BD4690BC704790B486B0FB
:10B4400000AF786039607B683A6853E8004F44EA9F
:10B45000020043E8000191F0000FF6D17C613861F1
:10B46000F9603B6918461837BD4690BC704790B4E8
:10B4700086B000AF786039607B683A6853E8004F67
:10B4800004EA020043E8000191F0000FF6D17C616C
:10B490003861F9607B6918461837BD4690BC704723
:10B4A00090B486B000AF786039607B683A6853E842
:10B4B000004F04EA020043E8000191F0000FF6D1CA
:10B4C0007C613861F9603B6918461837BD4690BC0D
:10B4D000704790B486B000AF786039607B683A6896
:10B4E00053E8004F04EB020043E8000191F0000F25
:10B4F000F6D17C613861F9607B6918461837BD4622
:10B5000090BC704790B486B000AF786039607B68BB
:10B510003A6853E8004F04EB020043E8000191F061
:10B52000000FF6D17C613861F9603B691846183725
:10B53000BD4690BC704790B486B000AF786039606B
:10B540007B683A6853E8004FA4EB020043E800012F
:10B5500091F0000FF6D17C613861F9603B691846C3
:10B560001837BD4690BC704780B582B000AF786098
:10B5700001217868FFF749FF034618460837BD46A2
:10B5800080BD80B582B000AF786001217868FFF798
:10B5900055FF034618460837BD4680BD80B582B0CA
:10B5A00000AF786000217868FFF761FF0346184616
:10B5B0000837BD4680BD80B483B000AF78600B46CD
:10B5C000FB707B68DA68FB787968098A01FB03F312
:10B5D000134418460C37BD465DF8047B704780B4B1
:10B5E00083B000AF786039603B687A68D2689B1A94
:10B5F0007A68128AB3FBF2F3DBB218460C37BD4609
:10B600005DF8047B704780B584B000AF786000239C
:10B61000FB600023BB7207F10A031846FDF7ECFA42
:10B620007B681B681A687B685B689A421CD97B68D8
:10B630001B681A68013A1A601B681B7819467868FB
:10B64000FFF7B9FFF8607B689A687B681B681B6826
:10B65000D31AFB727B681B681B79FA7A9A4203D96A
:10B660007B681B68FA7A1A71BB7A1846FDF7CFFA25
:10B67000FB6818461037BD4680BD90B585B000AF59
:10B68000786039603B68FB600023FB7207F10B03B5
:10B690001846FDF7B1FA7B681B681C68621C1A60CB
:10B6A000F9687868FFF79BFF03462370FB7A18461A
:10B6B000FDF7ADFA00BF1437BD4690BD80B582B02E
:10B6C00000AF78607B689B68002B0CD07B685B695F
:10B6D0007A6810697A6811687A68926898477B6816
:10B6E00000229A6000E000BF0837BD4680BD0EB45E
:10B6F00080B585B000AF7860FB69002B0CD00023CB
:10B70000FB6007F12003FB6007F10C031A46F9699F
:10B71000786800F0AFF900E000BF1437BD46BDE81F
:10B72000804003B0704780B582B000AF78600B46B0
:10B73000FB70FB780A2B03D10D217868FFF7F3FF2C
:10B740007B681A687B689B68581C7968886013441A
:10B75000FA781A707B689A687B685B689A4202D3B1
:10B760007868FFF7ABFF00BF0837BD4680BD80B5E6
:10B7700086B000AFF860B9607A603B6000237B61FF
:10B780003B6803F00103002B21D00AE0BB680133C2
:10B79000BB607B6901337B61FB7C1946F868FFF76E
:10B7A000C2FFBB681B78FB74FB7C002BEED106E06C
:10B7B0007B68013B7B602021F868FFF7B4FF7A6863
:10B7C0007B699A422BD97B68002BF1D127E0BB68BB
:10B7D000002B0BD0B8680EF0C9FD786106E07B68DD
:10B7E000013B7B602021F868FFF79DFF7A687B6949
:10B7F0009A420ED97B68002BF1D10AE0BB68013375
:10B80000BB607B6901337B61FB7C1946F868FFF7FD
:10B810008AFFBB681B78FB74FB7C002BEED100BF5A
:10B820001837BD4680BD000080B588B000AFF86015
:10B83000B9607A603B60BB68FB610123BB6107E0D4
:10B84000FA697B68B2FBF3F3FB61BB690133BB614F
:10B85000FA697B689A42F3D23A68BB699A4201D985
:10B860003B68BB61FB6A03F00103002B1FD1BB6A7D
:10B87000002B1CD0FB6A03F00203002B05D03B68B1
:10B88000002B02D13023FB7501E02023FB7507E07C
:10B89000BB6A013BBB62FB7D1946F868FFF743FFBB
:10B8A000BB6A002B03D0BA69BB6A9A42F0D301236A
:10B8B000FB613B68012B03D93B68013B3B6009E01E
:10B8C000BA68FB69B2FBF3F33B613A697B689A4261
:10B8D00000D205E0FB697A6802FB03F3FB61E8E74D
:10B8E000BA68FB69B2FBF3F33B613B69FA6902FB9F
:10B8F00003F3BA68D31ABB60154A3B6913441B783B
:10B900001946F868FFF70FFFFA697B68B2FBF3F39B
:10B91000FB61FB69002BE3D1FB6A03F00103002B01
:10B9200011D0BB6A002B0ED006E0BB6A013BBB62A4
:10B930002021F868FFF7F7FEBB6A002B03D0BA6935
:10B94000BB6A9A42F1D300BF2037BD4680BD00BF1D
:10B950007CB0030080B588B002AFF860B9607A604F
:10B960003B60BB68002BB8BF5B423B6101237B613E
:10B9700007E07B683A6992FBF3F33B617B69013333
:10B980007B617B683A699A42F3DA3A687B699A424A
:10B9900001D93B687B613B6A002B0AD0BB68002B56
:10B9A00004DB7B6A03F00403002B02D03B6A013BFB
:10B9B0003B627B6A03F00203002B02D03B68002B42
:10B9C00016D07B6A03F00103002B11D13B6A002BD8
:10B9D0000ED006E03B6A013B3B622021F868FFF78E
:10B9E000A2FE3B6A002B03D07A693B6A9A42F1D3EC
:10B9F000BB68002B07DABB685B42BB602D21F8688F
:10BA0000FFF791FE08E07B6A03F00403002B03D0EC
:10BA10002B21F868FFF787FE7B6A03F00203002BF7
:10BA200019D07B6A03F00103002B14D13B68002B73
:10BA300011D13B6A002B0ED006E03B6A013B3B6212
:10BA40003021F868FFF76FFE3B6A002B03D07A695C
:10BA50003B6A9A42F1D3B9687B6A01933B6A0093CF
:10BA60003B687A68F868FFF7DFFE00BF1837BD460D
:10BA700080BD000080B58EB002AFF860B9607A601A
:10BA8000BB68002B00F08E81BB681B7887F82F30D5
:10BA9000BB680133BB6097F82F30002B00F0798131
:10BAA00097F82F30252B40F0688100233B6201235B
:10BAB000BB62BB681B7887F82F3097F82F30302B8C
:10BAC0000DD0302B1BDC2B2B11D02D2B17D13B6A2B
:10BAD00043F001033B62BB680133BB6012E03B6A89
:10BAE00043F002033B62BB680133BB600AE03B6A80
:10BAF00043F004033B62BB680133BB6002E00023F8
:10BB0000BB6200BFBB6A002BD3D10023FB6197F857
:10BB10002F302A2B0CD17B681B68191D7A681160A5
:10BB20001B68FA691344FB61BB680133BB601AE010
:10BB3000BB681B7887F82F3097F82F302F2B12D93E
:10BB400097F82F30392B0ED8BB680133BB60FA69E8
:10BB500013469B0013445B001A4697F82F3013449A
:10BB6000303BFB61D3E700237B62BB681B7887F81F
:10BB70002F3097F82F302E2B1DD1BB680133BB60BF
:10BB8000BB681B7887F82F3097F82F302F2B12D9EE
:10BB900097F82F30392B0ED8BB680133BB607A6A17
:10BBA00013469B0013445B001A4697F82F3013444A
:10BBB000303B7B62E4E7BB681B7887F82F3097F84F
:10BBC0002F306C2B03D097F82F30682B07D1BB6830
:10BBD0000133BB60BB681B7887F82F30EFE797F81D
:10BBE0002F30252B00F0BF80252BC0F2C180782B91
:10BBF00000F3BE80582BC0F2BB80583B202B00F2D4
:10BC0000B78001A252F823F0F3BC020071BD02001C
:10BC100071BD020071BD020071BD020071BD020064
:10BC200071BD020071BD020071BD020071BD020054
:10BC300071BD02008DBC0200ABBC020071BD0200F0
:10BC400071BD020071BD020071BD0200ABBC0200FB
:10BC500071BD020071BD020071BD020071BD020024
:10BC600071BD020071BD020033BD020071BD020052
:10BC700071BD020017BD020071BD0200CFBC020001
:10BC800071BD020071BD0200F3BC02007B681B683D
:10BC9000191D7A6811601B68BB62BB6AFB75FB7D6E
:10BCA0001946F868FFF73FFD63E07B681B68191DC4
:10BCB0007A6811601B68BB623B6A0193FB69009361
:10BCC0007B6A0A22B96AF868FFF744FE51E07B6894
:10BCD0001B68191D7A6811601B68BB62B96A3B6AF0
:10BCE0000193FB6900937B6A0A22F868FFF79CFDC9
:10BCF0003FE07B681B68191D7A6811601B68BB6296
:10BD0000B96A3B6A0193FB6900937B6A1022F86869
:10BD1000FFF78AFD2DE07B681B68191D7A681160AA
:10BD20001B68BB613B6AFA69B969F868FFF71FFDD8
:10BD30001FE07B681B68191D7A6811601B68BB6275
:10BD40003021F868FFF7EFFC7821F868FFF7EBFC8B
:10BD5000B96A002301930823009308231022F8688E
:10BD6000FFF762FD05E02521F868FFF7DCFC00E045
:10BD700000BFBB680133BB6005E097F82F30194660
:10BD8000F868FFF7D0FCBB681B78002B7FF47CAE13
:10BD900000E000BFFB681B7B002B04D0F868FFF7B6
:10BDA0008DFC00E000BF3037BD4680BD80B586B059
:10BDB00002AFF860B9607A60FB68002B10D1194AB5
:10BDC000194BD31ADB081B0443F00100174A18492A
:10BDD0000E2300930B461749FBF728FF0E231DE0A7
:10BDE000BB68002B10D10F4A0F4BD31ADB081B0482
:10BDF00043F00100104A0E490E2300930B460D49F3
:10BE0000FBF714FF0E2309E0FB68BA681A60FB68B1
:10BE10001B681B687968F86898470346184610370E
:10BE2000BD4680BDE8DB030090DB03009CB003004F
:10BE300040B20300A4B00300D0B0030090B587B0B7
:10BE400002AFF860B9607A603B60FB68002B10D1EC
:10BE5000604A614BD31ADB081B0443F001005F4AC0
:10BE60005F490E2300930B465E49FBF7DFFE0E236E
:10BE7000ABE07B68002B10D1564A574BD31ADB0836
:10BE80001B0443F00100584A55490E2300930B460A
:10BE90005449FBF7CBFE0E2397E0FB681B68002B91
:10BEA00010D14C4A4C4BD31ADB081B0443F0010061
:10BEB0004E4A4B49082300930B464A49FBF7B6FE0E
:10BEC000082382E03B68002B10D1424A424BD31A30
:10BED000DB081B0443F00100454A41490923009354
:10BEE0000B464049FBF7A2FE09236EE0FB685B6846
:10BEF0005A683B68B3FBF2F102FB01F29B1A002B7C
:10BF000010D0344A344BD31ADB081B0443F0010031
:10BF1000384A3349092300930B463249FBF786FE22
:10BF2000092352E0B86800F026F90346002B10D12F
:10BF3000284A294BD31ADB081B0443F001002E4A80
:10BF40002749102300930B462649FBF76FFE102369
:10BF50003BE07B68184600F00EF90346002B10D139
:10BF60001C4A1D4BD31ADB081B0443F00100234A73
:10BF70001B49102300930B461A49FBF757FE102369
:10BF800023E03A68B968F86800F0D6F80346002B59
:10BF900010D1104A104BD31ADB081B0443F00100E8
:10BFA000174A0F49102300930B460E49FBF73EFE3C
:10BFB00010230AE0FB681B68DC683B6A00933B685F
:10BFC0007A68B968F868A047034618461437BD4632
:10BFD00090BD00BFE8DB030090DB03009CB00300D2
:10BFE00054B20300A4B0030030B10300D8B0030082
:10BFF000ECB0030038B1030064B103007CB103006E
:10C00000A0B1030090B587B002AFF860B9607A6064
:10C010003B60FB68002B10D13E4A3F4BD31ADB0834
:10C020001B0443F001003D4A3D490E2300930B469B
:10C030003C49FBF7FBFD0E2368E0FB681B68002B07
:10C0400010D1344A344BD31ADB081B0443F00100EF
:10C05000354A3349082300930B463249FBF7E6FD86
:10C06000082353E07B68002B10D12A4A2A4BD31AAD
:10C07000DB081B0443F001002C4A294909230093E3
:10C080000B462849FBF7D2FD09233FE0B968F86861
:10C0900000F083F80346002B10D11E4A1E4BD31A22
:10C0A000DB081B0443F00100214A1D4910230093C3
:10C0B0000B461C49FBF7BAFD102327E0FB685B68C1
:10C0C0001B687A6802FB03F31A46B968F86800F047
:10C0D00033F80346002B10D10E4A0F4BD31ADB085E
:10C0E0001B0443F00100134A0D49102300930B4633
:10C0F0000C49FBF79BFD102308E0FB681B681C69DB
:10C100003B687A68B968F868A04703461846143750
:10C11000BD4690BDE8DB030090DB03009CB003004C
:10C1200068B20300A4B00300D8B00300ECB0030071
:10C13000C8B10300F0B1030080B485B000AFF8606F
:10C14000B9607A60FB68DB68BA689A4209D3BA685A
:10C150007B6813445A1EFB681B699A4201D801236D
:10C1600000E0002303F00103DBB218461437BD469C
:10C170005DF8047B704780B483B000AF78607B6863
:10C1800003F00303002B0CBF01230023DBB218468E
:10C190000C37BD465DF8047B704780B483B000AFB8
:10C1A000786039607B685B681B685A1E3B68134087
:10C1B000002B0CBF01230023DBB218460C37BD4611
:10C1C0005DF8047B704729DF704700BF184628DF01
:10C1D000704700BF184680B588B000AF78603960FE
:10C1E0007B681B689B68002B35D007F10803002291
:10C1F0001A605A609A60DA601A615A613B68FB60A3
:10C200007B689B68FB617B681B79002B02D0012B4C
:10C210000CD018E001233B727B681B693B617B6893
:10C22000DB687B617B685B69BB610CE002233B726E
:10C230007B68DB684FF4805202FB03F33B617B6851
:10C240005B69BB6100BF7B681B689B6807F10802E4
:10C250001046984700E000BF2037BD4680BD80B53E
:10C2600086B000AF78607B685A697B689B69D31A97
:10C27000B3F5805F28BF4FF480537B6104227B6954
:10C28000B3FBF2F3012B38BF01237B617B681A6992
:10C290007B689B6913443B617B68DB681A467B685B
:10C2A0009B691344FB607A69F9683869FFF78BFF73
:10C2B000034618461837BD4680BD80B582B000AF32
:10C2C00078607B68DA687B681B6913441846FFF75F
:10C2D0007EFF034618460837BD4680BD80B500AFD7
:10C2E000034B04491846FEF79EFF00BF80BD00BF08
:10C2F0005C3500208435002080B500AF084B09492B
:10C300001846FEF776FF0346074A1360064B1B6884
:10C31000002B14BF01230023DBB2184680BD00BFF1
:10C320005C350020843500208035002080B582B047
:10C3300000AF2B4B1B7A002B0BD1FFF7DDFF034621
:10C3400083F00103DBB2002B03D0254B00225A609F
:10C3500042E0234B02221A72224B1B681B79002BEE
:10C3600002D0012B07D00DE01E4B1B681846FFF7CB
:10C3700076FF786009E01B4B1B681846FFF79DFFAE
:10C38000786002E003237B6000BF7B68002B03D052
:10C390007B68112B0CD00FE0114B1B7C83F0010349
:10C3A000DBB2002B17D00021022000F087F912E049
:10C3B0000B4B01221A720FE00A4B1B68032118462F
:10C3C000FFF709FF064B00221A72054B00225A6044
:10C3D000FFF784FF00E000BF0837BD4680BD00BF07
:10C3E0006C3500208035002080B500AF0848FFF78D
:10C3F000BBF80346002B08D1064B5B7C83F001039E
:10C40000DBB2002B01D0FFF791FF00BF80BD00BF62
:10C41000703500206C35002080B485B000AF7860A6
:10C420001C4B0022DA607B681B79002B02D0012BA9
:10C4300019D028E07B685A697B689B69D31AB3F5E9
:10C44000805F28BF4FF48053FB607B689A69FB686C
:10C450001A447B689A617B689A697B685B699A4237
:10C460000ED1012310E07B681B695A1C7B681A619E
:10C470007B681A697B685B699A4203D1012303E0F8
:10C4800000BF00E000BF002318461437BD465DF82A
:10C49000047B70476C35002080B483B000AF7860B7
:10C4A0000A4BDB680133094AD360084BDB68082B71
:10C4B00004D9064B0022DA60012300E0002318466D
:10C4C0000C37BD465DF8047B704700BF6C3500201B
:10C4D00080B582B000AF786039607B680C4A5A60E2
:10C4E0000C48FFF741F80346002B0BD10DF046FC3A
:10C4F00003461A46074B1A7407481C238C22074927
:10C50000FEF703FE002318460837BD4680BD00BF76
:10C510007CB203006C3500205C350020D034002054
:10C5200080B582B000AF78603960142200210648DF
:10C530000DF014FF054B1846FEF719FE00231846B0
:10C540000837BD4680BD00BF6C3500205C3500203B
:10C5500080B586B000AFF860B9607A603B60194A78
:10C5600007F1100319461046FEF714FE78617B6947
:10C57000002B01D1042320E01C22002178690DF05A
:10C58000EDFE7B6900221A717B69FA681A607B698B
:10C590003A6A9A607B69BA681A617B697A68DA607C
:10C5A0007B693A685A61074A07F110031946104639
:10C5B000FEF70AFEFFF718FF002318461837BD469E
:10C5C00080BD00BF5C35002080B584B000AFF8604E
:10C5D000B9607A603B60BB683A68194678680DF0CC
:10C5E000AFFE002318461037BD4680BD80B586B02B
:10C5F00000AFF860B9607A603B60194A07F1100338
:10C6000019461046FEF7C6FD78617B69002B01D103
:10C61000042321E01C22002178690DF09FFE7B6934
:10C6200001221A717B69FA681A607B693A689A601C
:10C630004FF48052BB68B3FBF2F27B69DA607B692E
:10C640007A685A61064A07F1100319461046FEF748
:10C65000BBFDFFF7C9FE002318461837BD4680BD55
:10C660005C35002080B483B000AF786039603B68EF
:10C6700018460C37BD465DF8047B704780B483B024
:10C6800000AF78603960002318460C37BD465DF86E
:10C69000047B704780B483B000AF7860064B1B7A90
:10C6A000002B14BF01230023DBB218460C37BD4614
:10C6B0005DF8047B704700BF6C35002080B584B006
:10C6C00000AF786039607B68022B02D07B68032B57
:10C6D00044D1254B1B7A022B05D0022B31DC002BD9
:10C6E0003ED0012B2DE00023FB737B68022B03D08F
:10C6F0007B68032B08D00FE01C4B1B681846FFF724
:10C700008BFE0346FB7307E0184B1B681846FFF7C8
:10C71000C3FE0346FB7300BFFB7B002B10D0124B04
:10C7200000221A72114B1A687B68022B01D1002378
:10C7300000E00D2319461046FFF74DFDFFF7CEFD33
:10C7400000BF094B5B7C83F00103DBB2002B02D0FE
:10C75000FFF7ECFD05E00DF0F5FA02E000BF00E0A8
:10C7600000BF1037BD4680BD6C35002080350020ED
:10C7700080B483B000AF03463960FB71074B0122E0
:10C780005A74064B1B7A002B0CBF01230023DBB22B
:10C7900018460C37BD465DF8047B70476C350020A9
:10C7A00080B582B000AF03463960FB71FB79012B85
:10C7B00002D0FB79032B0CD1084B00225A74FB7971
:10C7C000012B0CBF01230023DAB2044B1A74FFF7CC
:10C7D000ADFD00BF0837BD4680BD00BF6C350020F1
:10C7E00080B58AB000AF786039607B681B8A043BF3
:10C7F000FB613A68FB691344DA1CFB69B2FBF3F393
:10C80000FB767868FEF7FFFE78617B69002B01D12B
:10C81000002337E07B6900221A717B6901225A717B
:10C82000FB699AB27B69DA807B697B62FB7E013BA4
:10C830003B617B6A7A681A6000233B621DE078687E
:10C84000FEF7E1FEF860FB68002B0ED07B695B7998
:10C850000133DAB27B695A717B6AFA681A60FB6845
:10C860007A681A60FB687B6204E0786900F00EF871
:10C87000002307E03B6A01333B623A6A3B699A4214
:10C88000DDD37B6918462837BD4680BD80B58AB0A8
:10C8900000AF78607B68FB61FB695B79FB767B6846
:10C8A0003B62FB7E013B7B6100237B6205E03B6AD0
:10C8B0001B683B627B6A01337B627A6A7B699A42BE
:10C8C000F5D33B6A1B683B617B683B6200237B625C
:10C8D0000BE03B6A1B68FB60396A3869FEF7CDFEE6
:10C8E000FB683B627B6A01337B62FB7E7A6A9A4219
:10C8F000EFD300BF00BF2837BD4680BD80B584B0F0
:10C9000000AF78607B68FB60FB6804330121184648
:10C91000FEF7F8FD00BF1037BD4680BD80B586B07C
:10C9200000AF78607B687B617B6904330121184626
:10C93000FEF701FE0346FB6007F10C033B613B6918
:10C940001B78002B02D17868FFF7A0FF00BF1837D3
:10C95000BD4680BD80B590B000AFF860B9607A6028
:10C960003B60FB687B62FB68FB637B6ADB881A4683
:10C970007B6A5B7903FB02F3043B3B627B6ADB88E7
:10C98000FB613B681A1DFB69B2FBF3F3BB633B68B9
:10C990000433FA69B3FBF2F2F96901FB02F29B1A64
:10C9A0007B637B681A683B6813443A6A9A4203D2F5
:10C9B0003A6A3B68D31A01E07B681B683B637B687B
:10C9C0003A6B1A6005E0FB6B1B68FB63BB6B013BBA
:10C9D000BB63BB6B002BF6D10023FB62FA697B6B58
:10C9E000D31ABB62BA6A3B6B934228BF1346BB6241
:10C9F0002AE0BA68FB6A1344BB61FA6B7B6B134491
:10CA000004337B6197F84830002B05D0BA6A796906
:10CA1000B8690DF095FC04E0BA6AB96978690DF05F
:10CA20008FFC00237B63FB6B1B68FB633A6BBB6A69
:10CA3000D31A3B63FA6ABB6A1344FB62FA693B6B25
:10CA4000934228BF1346BB623B6B002BD1D100BF82
:10CA500000BF4037BD4680BD80B588B002AFF860EA
:10CA6000B9607A603B607B687B6107F11402002348
:10CA700000933B68B968F868FFF76CFF00BF183790
:10CA8000BD4680BD80B588B002AFF860B9607A60FD
:10CA90003B607B687B6107F11402012300933B68D4
:10CAA000B968F868FFF756FF00BF1837BD4680BD6C
:10CAB00080B483B000AF786039607B683A681A60F0
:10CAC0007B681B681A687B685A607B685A687B6859
:10CAD0001B685B689A4202D17B6800225A6000BFE3
